:100000008A11FD2F00308A000408840A8207003418
:10001000013400340A34003464340034E8340334E6
:1000200010342734443475347434793420344334F0
:10003000793463346C3465343D342034253464348D
:1000400025342534003446347234653471343D34FB
:0E005000203425346434203448347A340034AB
:1007300000308A11BC238A1101308A11BC238A112E
:1007400008008312031391012008831603139200FB
:10075000FC3083120313920512150800831603134D
:100760009F171F08F0390E389F001F1383120313C1
:100770009F131F171F14080083120313A3000611F1
:1007800023088A11F0238A11831203138615063079
:1007900083120313A2003030A100A10BCD2BA20BBA
:1007A000CD2B8312031386110800C7308312031365
:1007B0009F05073083120313A200A20BDD2BE02B51
:1007C000831203131F151F19E62BE72BE32B1E08BB
:1007D000A100831603131E0883120313A000080050
:1007E00083120313A000201CF62BF72BF92B0616FF
:1007F000FA2B0612A01CFD2BFE2B002C8616012CBA
:100800008612201D042C052C072C0617082C061315
:10081000A01D0B2C0C2C0E2C86170F2C86130800F9
:1008200083120313A800A601A701272C2608280776
:10083000A5002508840000088A1133248A1101309C
:1008400083120313A6070318A70A0030A707260878
:100850002807A5002508840083130008031D312CF8
:10086000322C162C080083120313A40024080F391D
:10087000A2002408F039A30006152308A1000430C3
:100880000310A10CFF3E031D402C21088A11F02308
:100890008A118312031386150C3083120313A100EF
:1008A000A10B502C532C83120313861122088A119A
:1008B000F0238A118312031386150C30831203135D
:1008C000A100A10B612C642C831203138611080074
:1008D000831203132808290403196F2C702C9F2CF2
:1008E000AD01AD0A7E2C01300310A80DA90DFF3E0D
:1008F000031D742C0130AC002C08AD07A91F812CFE
:10090000822C732C29082B02031D882C28082A020C
:10091000031C8B2C8C2C922C2808AA022908031C5F
:10092000AB03AB0201300310A90CA80CFF3E031D62
:10093000932C0130AD02031D9E2C9F2C822C2B0882
:10094000A9002A08A800080083120313A501A60124
:10095000200821040319AD2CAE2CE52CA701A70A11
:10096000BC2C01300310A00DA10DFF3E031DB22CC5
:100970000130A4002408A707A11FBF2CC02CB12C54
:1009800001300310A50DA60DFF3E031DC12C21084B
:100990002302031DCD2C20082202031CD02CD12CB5
:1009A000D82C2008A2022108031CA303A3022514AB
:1009B00001300310A10CA00CFF3E031DD92C013007
:1009C000A702031DE42CE52CC02C2608A100250855
:1009D000A000080083160313061186110612861262
:1009E0000613861300308A11F0238A111A308312FD
:1009F0000313A500F830A400A40BFC2CA50BFC2CC1
:100A000003308A11BC238A11073083120313A50017
:100A10007C30A400A40B0A2DA50B0A2D0F2D03304A
:100A20008A11BC238A110F3083120313A5004730AB
:100A3000A400A40B192DA50B192D000003308A1159
:100A4000BC238A1102308A11BC238A1102308A1118
:100A5000BC238A1108308A11BC238A1100308A1104
:100A6000BC238A110C308A11BC238A1100308A11F0
:100A7000BC238A1106308A11BC238A118A1198235B
:100A80008A11080083120313A6002603031D492DB3
:100A90004A2D652D24087F3EA9002908A5000430B1
:100AA0000310A50CFF3E031D502D2508A7002908A3
:100AB0000F39A80027088A11BC238A118312031357
:100AC00028088A11BC238A11C82D02302606031D6E
:100AD0006A2D6B2D862D2408BF3EA9002908A5008C
:100AE00004300310A50CFF3E031D712D2508A7003F
:100AF00029080F39A80027088A11BC238A118312FC
:100B0000031328088A11BC238A11C82D0330260636
:100B1000031D8B2D8C2DA72D2408933EA900290899
:100B2000A50004300310A50CFF3E031D922D2508DF
:100B3000A70029080F39A80027088A11BC238A11A9
:100B40008312031328088A11BC238A11C82D04308C
:100B50002606031DAC2DAD2DC82D2408D33EA900BB
:100B60002908A50004300310A50CFF3E031DB32D7A
:100B70002508A70029080F39A80027088A11BC23D7
:100B80008A118312031328088A11BC238A11C82DE5
:100B9000080083120313AA01A31FCF2DD02DDD2D32
:100BA000A009A109A209A309A00A0319A10A03190E
:100BB000A20A0319A30AAA01AA0AA71FE02DE12D80
:100BC000F02DA409A509A609A709A40A0319A50AD5
:100BD0000319A60A0319A70A0130A8002808AA06C3
:100BE0000030AE000030AD000030AC000030AB0093
:100BF00023082204210420040319FF2D002E4D2E6A
:100C0000A901A90A102E0130A8000310A00DA10D02
:100C1000A20DA30DA80B052E0130A8002808A907D6
:100C2000A31F132E142E032E0130A8000310AB0DAA
:100C3000AC0DAD0DAE0DA80B162E23082702031D1B
:100C40002B2E22082602031D2B2E21082502031D10
:100C50002B2E20082402031C2E2E2F2E3E2E200881
:100C6000A4022108031C210FA5022208031C220F45
:100C7000A6022308031C230FA7022B140130031024
:100C8000A30CA20CA10CA00CFF3E031D3F2E0130B3
:100C9000A902031D4C2E4D2E142E2A080319512E85
:100CA000522E5D2EAB09AC09AD09AE09AB0A031992
:100CB000AC0A0319AD0A0319AE0A2E08A3002D08C9
:100CC000A2002C08A1002B08A0000800F930831214
:100CD0000313DF000030E0008316031307118312B3
:100CE00003136008A1005F08A0008A11A1238A11E4
:100CF0008A11AE238A118A11EA248A110F308312D5
:100D0000031397046008BC005F08BB000310BB0D11
:100D1000BC0D0310BB0DBC0D3B08043EA0003C08FD
:100D20000318013E003EA100A201A11BA20322085C
:100D3000A3000030A7003D30A6000930A500003018
:100D4000A4008A11C9258A11831203132108DC002B
:100D50002008DB008A1198238A118A11D5238A1171
:100D6000831203132108E2002008E1000A30A000EA
:100D70000030A1006208A3006108A2008A11A42427
:100D80008A11831203132108DE002008DD000330DE
:100D90006202E93003196102031CCF2ED02ED42E3B
:100DA0006430DD000030DE001C30AE005C08B000B6
:100DB0005B08AF003D308A1131278A11831203137B
:100DC000A401A40A01308A1142258A113D308A11FA
:100DD00010248A110B3083120313AE005E08B0009A
:100DE0005D08AF003D308A1131278A118312031349
:100DF000A401A40A02308A1142258A113D308A11C9
:100E000010248A118312031361080139BB00BB0E41
:100E1000BB0D17083B06DF393B0697006108023916
:100E2000BB00BB0E17083B06EF393B069700620874
:100E3000BC006108BB000310BC0CBB0C0310BC0C55
:100E4000BB0C3B089500823083120313BC00DD30DD
:100E5000BB00BB0B292FBC0B292F0000AA2E8A1127
:100E6000002883120313B9002F30B400EA2F253075
:100E70003A0603193C2F3D2F472F390884003A08C2
:100E8000831380000130B1003108B907EA2FB501A2
:100E90000130AE07FF302E0784008A1102208A112C
:100EA000BA00B100B2013208003A0319582F3D2FA1
:100EB0003108003A0319F82F643A0319632F0D3AE9
:100EC0000319632F3D2F3408840083130008B700F3
:100ED000840A0008B8000230B1003108B407B81F16
:100EE000722F732F7C2F0330B1003108B504B7097E
:100EF000B809B70A0319B80ABA01BA0A3A08B10020
:100F00003107013E84008A1102208A11B2008A1141
:100F100002208A11B30033083802031D912F3208D2
:100F200037020318942F952F962FA02F0130B10070
:100F30003108BA0705303A06031D9F2FA02F7E2FD8
:100F4000350803390319A52FA62FAF2F39088400C0
:100F50002D30831380000130B1003108B9073A0801
:100F6000B600E12F0A30A8000030A9003608B10011
:100F70003107013E84008A1102208A11A0008A11E3
:100F800002208A11A1003808A3003708A2008A11A4
:100F9000A4248A11831203132108AB002008AA009D
:100FA0008A1168248A11831203132808303EBA007C
:100FB000390884003A08831380000130B1003108F9
:100FC000B907FF30B1003108B607360A031DE92F13
:100FD000EA2FB22F0130AE07FF302E0784008A11AE
:100FE00002208A11BA003A08031DF72FF82F372F75
:100FF0003908840083138001080083018A11662E5A
:08400000FF3FFF3FFF3FFF3FC0
:02400E00393F38
:00000001FF
